{
  "_format": "hh-sol-artifact-1",
  "contractName": "RecoPortal",
  "sourceName": "contracts/RecoPortal.sol",
  "abi": [
    {
      "inputs": [],
      "stateMutability": "payable",
      "type": "constructor"
    },
    {
      "anonymous": false,
      "inputs": [
        {
          "indexed": true,
          "internalType": "address",
          "name": "from",
          "type": "address"
        },
        {
          "indexed": false,
          "internalType": "uint256",
          "name": "timestamp",
          "type": "uint256"
        },
        {
          "indexed": false,
          "internalType": "string",
          "name": "message",
          "type": "string"
        }
      ],
      "name": "NewReco",
      "type": "event"
    },
    {
      "inputs": [],
      "name": "getAllReco",
      "outputs": [
        {
          "components": [
            {
              "internalType": "address",
              "name": "recommender",
              "type": "address"
            },
            {
              "internalType": "string",
              "name": "message",
              "type": "string"
            },
            {
              "internalType": "uint256",
              "name": "timestamp",
              "type": "uint256"
            }
          ],
          "internalType": "struct RecoPortal.Reco[]",
          "name": "",
          "type": "tuple[]"
        }
      ],
      "stateMutability": "view",
      "type": "function"
    },
    {
      "inputs": [],
      "name": "getTotalReco",
      "outputs": [
        {
          "internalType": "uint256",
          "name": "",
          "type": "uint256"
        }
      ],
      "stateMutability": "view",
      "type": "function"
    },
    {
      "inputs": [
        {
          "internalType": "address",
          "name": "",
          "type": "address"
        }
      ],
      "name": "lastRecoAt",
      "outputs": [
        {
          "internalType": "uint256",
          "name": "",
          "type": "uint256"
        }
      ],
      "stateMutability": "view",
      "type": "function"
    },
    {
      "inputs": [
        {
          "internalType": "string",
          "name": "_message",
          "type": "string"
        }
      ],
      "name": "recommend",
      "outputs": [],
      "stateMutability": "nonpayable",
      "type": "function"
    }
  ],
  "bytecode": "0x60806040526200004f6040518060400160405280601f81526020017f4920616d206120636f6e747261637420616e64204920616d20736d6172742e008152506200007760201b620006501760201c565b606444426200005f9190620001c4565b6200006b919062000261565b60018190555062000308565b62000117816040516024016200008e919062000184565b6040516020818303038152906040527f41304fac000000000000000000000000000000000000000000000000000000007bffffffffffffffffffffffffffffffffffffffffffffffffffffffff19166020820180517bffffffffffffffffffffffffffffffffffffffffffffffffffffffff83818316178352505050506200011a60201b60201c565b50565b60008151905060006a636f6e736f6c652e6c6f679050602083016000808483855afa5050505050565b60006200015082620001a8565b6200015c8185620001b3565b93506200016e8185602086016200022b565b6200017981620002f7565b840191505092915050565b60006020820190508181036000830152620001a0818462000143565b905092915050565b600081519050919050565b600082825260208201905092915050565b6000620001d18262000221565b9150620001de8362000221565b9250827fffffffffffffffffffffffffffffffffffffffffffffffffffffffffffffffff0382111562000216576200021562000299565b5b828201905092915050565b6000819050919050565b60005b838110156200024b5780820151818401526020810190506200022e565b838111156200025b576000848401525b50505050565b60006200026e8262000221565b91506200027b8362000221565b9250826200028e576200028d620002c8565b5b828206905092915050565b7f4e487b7100000000000000000000000000000000000000000000000000000000600052601160045260246000fd5b7f4e487b7100000000000000000000000000000000000000000000000000000000600052601260045260246000fd5b6000601f19601f8301169050919050565b6112aa80620003186000396000f3fe608060405234801561001057600080fd5b506004361061004c5760003560e01c806360ed12c9146100515780637dfdf5141461006f5780639479f1de1461008b578063ea1e83c1146100bb575b600080fd5b6100596100d9565b6040516100669190610c9b565b60405180910390f35b61008960048036038101906100849190610a32565b61022a565b005b6100a560048036038101906100a09190610a09565b61060a565b6040516100b29190610de4565b60405180910390f35b6100c3610622565b6040516100d09190610de4565b60405180910390f35b60606002805480602002602001604051908101604052809291908181526020016000905b8282101561022157838290600052602060002090600302016040518060600160405290816000820160009054906101000a900473ffffffffffffffffffffffffffffffffffffffff1673ffffffffffffffffffffffffffffffffffffffff1673ffffffffffffffffffffffffffffffffffffffff16815260200160018201805461018690610fca565b80601f01602080910402602001604051908101604052809291908181526020018280546101b290610fca565b80156101ff5780601f106101d4576101008083540402835291602001916101ff565b820191906000526020600020905b8154815290600101906020018083116101e257829003601f168201915b50505050508152602001600282015481525050815260200190600101906100fd565b50505050905090565b42610384600360003373ffffffffffffffffffffffffffffffffffffffff1673ffffffffffffffffffffffffffffffffffffffff168152602001908152602001600020546102789190610ef6565b106102b8576040517f08c379a00000000000000000000000000000000000000000000000000000000081526004016102af90610d84565b60405180910390fd5b42600360003373ffffffffffffffffffffffffffffffffffffffff1673ffffffffffffffffffffffffffffffffffffffff16815260200190815260200160002081905550600160008082825461030e9190610ef6565b925050819055506103386040518060600160405280602181526020016112546021913933836106e9565b600260405180606001604052803373ffffffffffffffffffffffffffffffffffffffff16815260200183815260200142815250908060018154018082558091505060019003906000526020600020906003020160009091909190915060008201518160000160006101000a81548173ffffffffffffffffffffffffffffffffffffffff021916908373ffffffffffffffffffffffffffffffffffffffff16021790555060208201518160010190805190602001906103f79291906108e9565b50604082015181600201555050606460015442446104159190610ef6565b61041f9190610ef6565b610429919061102d565b6001819055506104706040518060400160405280601681526020017f52616e646f6d20232067656e6572617465643a20256400000000000000000000815250600154610788565b6032600154116105b7576104b96040518060400160405280600781526020017f257320776f6e210000000000000000000000000000000000000000000000000081525033610824565b600066017e9d8602b400905047811115610508576040517f08c379a00000000000000000000000000000000000000000000000000000000081526004016104ff90610da4565b60405180910390fd5b60003373ffffffffffffffffffffffffffffffffffffffff168260405161052e90610c86565b60006040518083038185875af1925050503d806000811461056b576040519150601f19603f3d011682016040523d82523d6000602084013e610570565b606091505b50509050806105b4576040517f08c379a00000000000000000000000000000000000000000000000000000000081526004016105ab90610dc4565b60405180910390fd5b50505b3373ffffffffffffffffffffffffffffffffffffffff167fc180eab6945004a18cb2caefc3de23a73ec361d79f718160b4e27240ef2dfd4742836040516105ff929190610dff565b60405180910390a250565b60036020528060005260406000206000915090505481565b600061064860405180606001604052806021815260200161123360219139600054610788565b600054905090565b6106e6816040516024016106649190610cbd565b6040516020818303038152906040527f41304fac000000000000000000000000000000000000000000000000000000007bffffffffffffffffffffffffffffffffffffffffffffffffffffffff19166020820180517bffffffffffffffffffffffffffffffffffffffffffffffffffffffff83818316178352505050506108c0565b50565b61078383838360405160240161070193929190610d0f565b6040516020818303038152906040527fe0e9ad4f000000000000000000000000000000000000000000000000000000007bffffffffffffffffffffffffffffffffffffffffffffffffffffffff19166020820180517bffffffffffffffffffffffffffffffffffffffffffffffffffffffff83818316178352505050506108c0565b505050565b610820828260405160240161079e929190610d54565b6040516020818303038152906040527f9710a9d0000000000000000000000000000000000000000000000000000000007bffffffffffffffffffffffffffffffffffffffffffffffffffffffff19166020820180517bffffffffffffffffffffffffffffffffffffffffffffffffffffffff83818316178352505050506108c0565b5050565b6108bc828260405160240161083a929190610cdf565b6040516020818303038152906040527f319af333000000000000000000000000000000000000000000000000000000007bffffffffffffffffffffffffffffffffffffffffffffffffffffffff19166020820180517bffffffffffffffffffffffffffffffffffffffffffffffffffffffff83818316178352505050506108c0565b5050565b60008151905060006a636f6e736f6c652e6c6f679050602083016000808483855afa5050505050565b8280546108f590610fca565b90600052602060002090601f016020900481019282610917576000855561095e565b82601f1061093057805160ff191683800117855561095e565b8280016001018555821561095e579182015b8281111561095d578251825591602001919060010190610942565b5b50905061096b919061096f565b5090565b5b80821115610988576000816000905550600101610970565b5090565b600061099f61099a84610e54565b610e2f565b9050828152602081018484840111156109b757600080fd5b6109c2848285610f88565b509392505050565b6000813590506109d98161121b565b92915050565b600082601f8301126109f057600080fd5b8135610a0084826020860161098c565b91505092915050565b600060208284031215610a1b57600080fd5b6000610a29848285016109ca565b91505092915050565b600060208284031215610a4457600080fd5b600082013567ffffffffffffffff811115610a5e57600080fd5b610a6a848285016109df565b91505092915050565b6000610a7f8383610c18565b905092915050565b610a9081610f4c565b82525050565b610a9f81610f4c565b82525050565b6000610ab082610e95565b610aba8185610eb8565b935083602082028501610acc85610e85565b8060005b85811015610b085784840389528151610ae98582610a73565b9450610af483610eab565b925060208a01995050600181019050610ad0565b50829750879550505050505092915050565b6000610b2582610ea0565b610b2f8185610ed4565b9350610b3f818560208601610f97565b610b488161111a565b840191505092915050565b6000610b5e82610ea0565b610b688185610ee5565b9350610b78818560208601610f97565b610b818161111a565b840191505092915050565b6000610b99603d83610ee5565b9150610ba48261112b565b604082019050919050565b6000610bbc603483610ee5565b9150610bc78261117a565b604082019050919050565b6000610bdf602b83610ee5565b9150610bea826111c9565b604082019050919050565b6000610c02600083610ec9565b9150610c0d82611218565b600082019050919050565b6000606083016000830151610c306000860182610a87565b5060208301518482036020860152610c488282610b1a565b9150506040830151610c5d6040860182610c68565b508091505092915050565b610c7181610f7e565b82525050565b610c8081610f7e565b82525050565b6000610c9182610bf5565b9150819050919050565b60006020820190508181036000830152610cb58184610aa5565b905092915050565b60006020820190508181036000830152610cd78184610b53565b905092915050565b60006040820190508181036000830152610cf98185610b53565b9050610d086020830184610a96565b9392505050565b60006060820190508181036000830152610d298186610b53565b9050610d386020830185610a96565b8181036040830152610d4a8184610b53565b9050949350505050565b60006040820190508181036000830152610d6e8185610b53565b9050610d7d6020830184610c77565b9392505050565b60006020820190508181036000830152610d9d81610b8c565b9050919050565b60006020820190508181036000830152610dbd81610baf565b9050919050565b60006020820190508181036000830152610ddd81610bd2565b9050919050565b6000602082019050610df96000830184610c77565b92915050565b6000604082019050610e146000830185610c77565b8181036020830152610e268184610b53565b90509392505050565b6000610e39610e4a565b9050610e458282610ffc565b919050565b6000604051905090565b600067ffffffffffffffff821115610e6f57610e6e6110eb565b5b610e788261111a565b9050602081019050919050565b6000819050602082019050919050565b600081519050919050565b600081519050919050565b6000602082019050919050565b600082825260208201905092915050565b600081905092915050565b600082825260208201905092915050565b600082825260208201905092915050565b6000610f0182610f7e565b9150610f0c83610f7e565b9250827fffffffffffffffffffffffffffffffffffffffffffffffffffffffffffffffff03821115610f4157610f4061105e565b5b828201905092915050565b6000610f5782610f5e565b9050919050565b600073ffffffffffffffffffffffffffffffffffffffff82169050919050565b6000819050919050565b82818337600083830152505050565b60005b83811015610fb5578082015181840152602081019050610f9a565b83811115610fc4576000848401525b50505050565b60006002820490506001821680610fe257607f821691505b60208210811415610ff657610ff56110bc565b5b50919050565b6110058261111a565b810181811067ffffffffffffffff82111715611024576110236110eb565b5b80604052505050565b600061103882610f7e565b915061104383610f7e565b9250826110535761105261108d565b5b828206905092915050565b7f4e487b7100000000000000000000000000000000000000000000000000000000600052601160045260246000fd5b7f4e487b7100000000000000000000000000000000000000000000000000000000600052601260045260246000fd5b7f4e487b7100000000000000000000000000000000000000000000000000000000600052602260045260246000fd5b7f4e487b7100000000000000000000000000000000000000000000000000000000600052604160045260246000fd5b6000601f19601f8301169050919050565b7f596f75206e65656420746f2077616974203135206d696e75746573206265666f60008201527f726520796f7520636f756c64207265636f6d6d656e6420616761696e2e000000602082015250565b7f547279696e6720746f207769746864726177206d6f7265206d6f6e657920746860008201527f616e2074686520636f6e7472616374206861732e000000000000000000000000602082015250565b7f4661696c656420746f207769746864726177206d6f6e65792066726f6d20746860008201527f6520636f6e74726163742e000000000000000000000000000000000000000000602082015250565b50565b61122481610f4c565b811461122f57600080fd5b5056fe5765206861766520256420746f74616c207265636f6d6d656e646174696f6e7321257320686173207265636f6d6d656e64656420796f7520736f6d657468696e6721a26469706673582212200c13e279316a51aa87a0f88d332d3d40f7fdc8d4df243b655b1b6366c511e92c64736f6c63430008040033",
  "linkReferences": {},
  "deployedLinkReferences": {}
}