{
  "_format": "hh-sol-artifact-1",
  "contractName": "RecoPortal",
  "sourceName": "contracts/RecoPortal.sol",
  "abi": [
    {
      "inputs": [],
      "stateMutability": "payable",
      "type": "constructor"
    },
    {
      "anonymous": false,
      "inputs": [
        {
          "indexed": true,
          "internalType": "address",
          "name": "from",
          "type": "address"
        },
        {
          "indexed": false,
          "internalType": "uint256",
          "name": "timestamp",
          "type": "uint256"
        },
        {
          "indexed": false,
          "internalType": "string",
          "name": "message",
          "type": "string"
        }
      ],
      "name": "NewReco",
      "type": "event"
    },
    {
      "inputs": [],
      "name": "getAllReco",
      "outputs": [
        {
          "components": [
            {
              "internalType": "address",
              "name": "recommender",
              "type": "address"
            },
            {
              "internalType": "string",
              "name": "message",
              "type": "string"
            },
            {
              "internalType": "uint256",
              "name": "timestamp",
              "type": "uint256"
            }
          ],
          "internalType": "struct RecoPortal.Reco[]",
          "name": "",
          "type": "tuple[]"
        }
      ],
      "stateMutability": "view",
      "type": "function"
    },
    {
      "inputs": [],
      "name": "getTotalReco",
      "outputs": [
        {
          "internalType": "uint256",
          "name": "",
          "type": "uint256"
        }
      ],
      "stateMutability": "view",
      "type": "function"
    },
    {
      "inputs": [
        {
          "internalType": "string",
          "name": "_message",
          "type": "string"
        }
      ],
      "name": "recommend",
      "outputs": [],
      "stateMutability": "nonpayable",
      "type": "function"
    }
  ],
  "bytecode": "0x60806040526200004f6040518060400160405280601f81526020017f4920616d206120636f6e747261637420616e64204920616d20736d6172742e008152506200005560201b620004751760201c565b620001e9565b620000f5816040516024016200006c919062000162565b6040516020818303038152906040527f41304fac000000000000000000000000000000000000000000000000000000007bffffffffffffffffffffffffffffffffffffffffffffffffffffffff19166020820180517bffffffffffffffffffffffffffffffffffffffffffffffffffffffff8381831617835250505050620000f860201b60201c565b50565b60008151905060006a636f6e736f6c652e6c6f679050602083016000808483855afa5050505050565b60006200012e8262000186565b6200013a818562000191565b93506200014c818560208601620001a2565b6200015781620001d8565b840191505092915050565b600060208201905081810360008301526200017e818462000121565b905092915050565b600081519050919050565b600082825260208201905092915050565b60005b83811015620001c2578082015181840152602081019050620001a5565b83811115620001d2576000848401525b50505050565b6000601f19601f8301169050919050565b610ebc80620001f96000396000f3fe608060405234801561001057600080fd5b50600436106100415760003560e01c806360ed12c9146100465780637dfdf51414610064578063ea1e83c114610080575b600080fd5b61004e61009e565b60405161005b91906109c3565b60405180910390f35b61007e6004803603810190610079919061077d565b6101ef565b005b610088610447565b6040516100959190610abc565b60405180910390f35b60606001805480602002602001604051908101604052809291908181526020016000905b828210156101e657838290600052602060002090600302016040518060600160405290816000820160009054906101000a900473ffffffffffffffffffffffffffffffffffffffff1673ffffffffffffffffffffffffffffffffffffffff1673ffffffffffffffffffffffffffffffffffffffff16815260200160018201805461014b90610ca2565b80601f016020809104026020016040519081016040528092919081815260200182805461017790610ca2565b80156101c45780601f10610199576101008083540402835291602001916101c4565b820191906000526020600020905b8154815290600101906020018083116101a757829003601f168201915b50505050508152602001600282015481525050815260200190600101906100c2565b50505050905090565b60016000808282546102019190610bce565b9250508190555061022b604051806060016040528060218152602001610e6660219139338361050e565b600160405180606001604052803373ffffffffffffffffffffffffffffffffffffffff16815260200183815260200142815250908060018154018082558091505060019003906000526020600020906003020160009091909190915060008201518160000160006101000a81548173ffffffffffffffffffffffffffffffffffffffff021916908373ffffffffffffffffffffffffffffffffffffffff16021790555060208201518160010190805190602001906102ea929190610672565b506040820151816002015550503373ffffffffffffffffffffffffffffffffffffffff167fc180eab6945004a18cb2caefc3de23a73ec361d79f718160b4e27240ef2dfd47428360405161033f929190610ad7565b60405180910390a2600066017e9d8602b400905047811115610396576040517f08c379a000000000000000000000000000000000000000000000000000000000815260040161038d90610a7c565b60405180910390fd5b60003373ffffffffffffffffffffffffffffffffffffffff16826040516103bc906109ae565b60006040518083038185875af1925050503d80600081146103f9576040519150601f19603f3d011682016040523d82523d6000602084013e6103fe565b606091505b5050905080610442576040517f08c379a000000000000000000000000000000000000000000000000000000000815260040161043990610a9c565b60405180910390fd5b505050565b600061046d604051806060016040528060218152602001610e45602191396000546105ad565b600054905090565b61050b8160405160240161048991906109e5565b6040516020818303038152906040527f41304fac000000000000000000000000000000000000000000000000000000007bffffffffffffffffffffffffffffffffffffffffffffffffffffffff19166020820180517bffffffffffffffffffffffffffffffffffffffffffffffffffffffff8381831617835250505050610649565b50565b6105a883838360405160240161052693929190610a07565b6040516020818303038152906040527fe0e9ad4f000000000000000000000000000000000000000000000000000000007bffffffffffffffffffffffffffffffffffffffffffffffffffffffff19166020820180517bffffffffffffffffffffffffffffffffffffffffffffffffffffffff8381831617835250505050610649565b505050565b61064582826040516024016105c3929190610a4c565b6040516020818303038152906040527f9710a9d0000000000000000000000000000000000000000000000000000000007bffffffffffffffffffffffffffffffffffffffffffffffffffffffff19166020820180517bffffffffffffffffffffffffffffffffffffffffffffffffffffffff8381831617835250505050610649565b5050565b60008151905060006a636f6e736f6c652e6c6f679050602083016000808483855afa5050505050565b82805461067e90610ca2565b90600052602060002090601f0160209004810192826106a057600085556106e7565b82601f106106b957805160ff19168380011785556106e7565b828001600101855582156106e7579182015b828111156106e65782518255916020019190600101906106cb565b5b5090506106f491906106f8565b5090565b5b808211156107115760008160009055506001016106f9565b5090565b600061072861072384610b2c565b610b07565b90508281526020810184848401111561074057600080fd5b61074b848285610c60565b509392505050565b600082601f83011261076457600080fd5b8135610774848260208601610715565b91505092915050565b60006020828403121561078f57600080fd5b600082013567ffffffffffffffff8111156107a957600080fd5b6107b584828501610753565b91505092915050565b60006107ca8383610940565b905092915050565b6107db81610c24565b82525050565b6107ea81610c24565b82525050565b60006107fb82610b6d565b6108058185610b90565b93508360208202850161081785610b5d565b8060005b85811015610853578484038952815161083485826107be565b945061083f83610b83565b925060208a0199505060018101905061081b565b50829750879550505050505092915050565b600061087082610b78565b61087a8185610bac565b935061088a818560208601610c6f565b61089381610d92565b840191505092915050565b60006108a982610b78565b6108b38185610bbd565b93506108c3818560208601610c6f565b6108cc81610d92565b840191505092915050565b60006108e4603483610bbd565b91506108ef82610da3565b604082019050919050565b6000610907602b83610bbd565b915061091282610df2565b604082019050919050565b600061092a600083610ba1565b915061093582610e41565b600082019050919050565b600060608301600083015161095860008601826107d2565b50602083015184820360208601526109708282610865565b91505060408301516109856040860182610990565b508091505092915050565b61099981610c56565b82525050565b6109a881610c56565b82525050565b60006109b98261091d565b9150819050919050565b600060208201905081810360008301526109dd81846107f0565b905092915050565b600060208201905081810360008301526109ff818461089e565b905092915050565b60006060820190508181036000830152610a21818661089e565b9050610a3060208301856107e1565b8181036040830152610a42818461089e565b9050949350505050565b60006040820190508181036000830152610a66818561089e565b9050610a75602083018461099f565b9392505050565b60006020820190508181036000830152610a95816108d7565b9050919050565b60006020820190508181036000830152610ab5816108fa565b9050919050565b6000602082019050610ad1600083018461099f565b92915050565b6000604082019050610aec600083018561099f565b8181036020830152610afe818461089e565b90509392505050565b6000610b11610b22565b9050610b1d8282610cd4565b919050565b6000604051905090565b600067ffffffffffffffff821115610b4757610b46610d63565b5b610b5082610d92565b9050602081019050919050565b6000819050602082019050919050565b600081519050919050565b600081519050919050565b6000602082019050919050565b600082825260208201905092915050565b600081905092915050565b600082825260208201905092915050565b600082825260208201905092915050565b6000610bd982610c56565b9150610be483610c56565b9250827fffffffffffffffffffffffffffffffffffffffffffffffffffffffffffffffff03821115610c1957610c18610d05565b5b828201905092915050565b6000610c2f82610c36565b9050919050565b600073ffffffffffffffffffffffffffffffffffffffff82169050919050565b6000819050919050565b82818337600083830152505050565b60005b83811015610c8d578082015181840152602081019050610c72565b83811115610c9c576000848401525b50505050565b60006002820490506001821680610cba57607f821691505b60208210811415610cce57610ccd610d34565b5b50919050565b610cdd82610d92565b810181811067ffffffffffffffff82111715610cfc57610cfb610d63565b5b80604052505050565b7f4e487b7100000000000000000000000000000000000000000000000000000000600052601160045260246000fd5b7f4e487b7100000000000000000000000000000000000000000000000000000000600052602260045260246000fd5b7f4e487b7100000000000000000000000000000000000000000000000000000000600052604160045260246000fd5b6000601f19601f8301169050919050565b7f547279696e6720746f207769746864726177206d6f7265206d6f6e657920746860008201527f616e2074686520636f6e7472616374206861732e000000000000000000000000602082015250565b7f4661696c656420746f207769746864726177206d6f6e65792066726f6d20746860008201527f6520636f6e74726163742e000000000000000000000000000000000000000000602082015250565b5056fe5765206861766520256420746f74616c207265636f6d6d656e646174696f6e7321257320686173207265636f6d6d656e64656420796f7520736f6d657468696e6721a2646970667358221220c4b6036b91a57ad663f93de97c1fb5af78ce1251995a2841cc46d3e9d7afb81e64736f6c63430008040033",
  "linkReferences": {},
  "deployedLinkReferences": {}
}