{
  "_format": "hh-sol-artifact-1",
  "contractName": "RecoPortal",
  "sourceName": "contracts/RecoPortal.sol",
  "abi": [
    {
      "inputs": [],
      "stateMutability": "nonpayable",
      "type": "constructor"
    },
    {
      "inputs": [],
      "name": "getTotalReco",
      "outputs": [
        {
          "internalType": "uint256",
          "name": "",
          "type": "uint256"
        }
      ],
      "stateMutability": "view",
      "type": "function"
    },
    {
      "inputs": [],
      "name": "recommend",
      "outputs": [],
      "stateMutability": "nonpayable",
      "type": "function"
    }
  ],
  "bytecode": "0x608060405234801561001057600080fd5b506100596040518060400160405280601f81526020017f4920616d206120636f6e747261637420616e64204920616d20736d6172742e0081525061005e60201b6100ce1760201c565b6101e1565b6100fa81604051602401610072919061015f565b6040516020818303038152906040527f41304fac000000000000000000000000000000000000000000000000000000007bffffffffffffffffffffffffffffffffffffffffffffffffffffffff19166020820180517bffffffffffffffffffffffffffffffffffffffffffffffffffffffff83818316178352505050506100fd60201b60201c565b50565b60008151905060006a636f6e736f6c652e6c6f679050602083016000808483855afa5050505050565b600061013182610181565b61013b818561018c565b935061014b81856020860161019d565b610154816101d0565b840191505092915050565b600060208201905081810360008301526101798184610126565b905092915050565b600081519050919050565b600082825260208201905092915050565b60005b838110156101bb5780820151818401526020810190506101a0565b838111156101ca576000848401525b50505050565b6000601f19601f8301169050919050565b610555806101f06000396000f3fe608060405234801561001057600080fd5b50600436106100365760003560e01c8063a160176d1461003b578063ea1e83c114610045575b600080fd5b610043610063565b005b61004d6100a0565b60405161005a91906103a1565b60405180910390f35b600160008082825461007591906103d8565b9250508190555061009e6040518060600160405280602181526020016104ff6021913933610167565b565b60006100c66040518060600160405280602181526020016104de60219139600054610203565b600054905090565b610164816040516024016100e2919061031f565b6040516020818303038152906040527f41304fac000000000000000000000000000000000000000000000000000000007bffffffffffffffffffffffffffffffffffffffffffffffffffffffff19166020820180517bffffffffffffffffffffffffffffffffffffffffffffffffffffffff838183161783525050505061029f565b50565b6101ff828260405160240161017d929190610341565b6040516020818303038152906040527f319af333000000000000000000000000000000000000000000000000000000007bffffffffffffffffffffffffffffffffffffffffffffffffffffffff19166020820180517bffffffffffffffffffffffffffffffffffffffffffffffffffffffff838183161783525050505061029f565b5050565b61029b8282604051602401610219929190610371565b6040516020818303038152906040527f9710a9d0000000000000000000000000000000000000000000000000000000007bffffffffffffffffffffffffffffffffffffffffffffffffffffffff19166020820180517bffffffffffffffffffffffffffffffffffffffffffffffffffffffff838183161783525050505061029f565b5050565b60008151905060006a636f6e736f6c652e6c6f679050602083016000808483855afa5050505050565b6102d18161042e565b82525050565b60006102e2826103bc565b6102ec81856103c7565b93506102fc81856020860161046a565b610305816104cc565b840191505092915050565b61031981610460565b82525050565b6000602082019050818103600083015261033981846102d7565b905092915050565b6000604082019050818103600083015261035b81856102d7565b905061036a60208301846102c8565b9392505050565b6000604082019050818103600083015261038b81856102d7565b905061039a6020830184610310565b9392505050565b60006020820190506103b66000830184610310565b92915050565b600081519050919050565b600082825260208201905092915050565b60006103e382610460565b91506103ee83610460565b9250827fffffffffffffffffffffffffffffffffffffffffffffffffffffffffffffffff038211156104235761042261049d565b5b828201905092915050565b600061043982610440565b9050919050565b600073ffffffffffffffffffffffffffffffffffffffff82169050919050565b6000819050919050565b60005b8381101561048857808201518184015260208101905061046d565b83811115610497576000848401525b50505050565b7f4e487b7100000000000000000000000000000000000000000000000000000000600052601160045260246000fd5b6000601f19601f830116905091905056fe5765206861766520256420746f74616c207265636f6d6d656e646174696f6e7321257320686173207265636f6d6d656e64656420796f7520736f6d657468696e6721a26469706673582212209339079fc3678f06c8f5b86f9f074f953a59f4458fbf146bbe7a074552f8eba964736f6c63430008040033",
  "linkReferences": {},
  "deployedLinkReferences": {}
}