{
  "_format": "hh-sol-artifact-1",
  "contractName": "RecoPortal",
  "sourceName": "contracts/RecoPortal.sol",
  "abi": [
    {
      "inputs": [],
      "stateMutability": "nonpayable",
      "type": "constructor"
    },
    {
      "anonymous": false,
      "inputs": [
        {
          "indexed": true,
          "internalType": "address",
          "name": "from",
          "type": "address"
        },
        {
          "indexed": false,
          "internalType": "uint256",
          "name": "timestamp",
          "type": "uint256"
        },
        {
          "indexed": false,
          "internalType": "string",
          "name": "message",
          "type": "string"
        }
      ],
      "name": "NewReco",
      "type": "event"
    },
    {
      "inputs": [],
      "name": "getAllReco",
      "outputs": [
        {
          "components": [
            {
              "internalType": "address",
              "name": "recommender",
              "type": "address"
            },
            {
              "internalType": "string",
              "name": "message",
              "type": "string"
            },
            {
              "internalType": "uint256",
              "name": "timestamp",
              "type": "uint256"
            }
          ],
          "internalType": "struct RecoPortal.Reco[]",
          "name": "",
          "type": "tuple[]"
        }
      ],
      "stateMutability": "view",
      "type": "function"
    },
    {
      "inputs": [],
      "name": "getTotalReco",
      "outputs": [
        {
          "internalType": "uint256",
          "name": "",
          "type": "uint256"
        }
      ],
      "stateMutability": "view",
      "type": "function"
    },
    {
      "inputs": [
        {
          "internalType": "string",
          "name": "_message",
          "type": "string"
        }
      ],
      "name": "recommend",
      "outputs": [],
      "stateMutability": "nonpayable",
      "type": "function"
    }
  ],
  "bytecode": "0x60806040523480156200001157600080fd5b506200005d6040518060400160405280601f81526020017f4920616d206120636f6e747261637420616e64204920616d20736d6172742e008152506200006360201b620003781760201c565b620001f7565b62000103816040516024016200007a919062000170565b6040516020818303038152906040527f41304fac000000000000000000000000000000000000000000000000000000007bffffffffffffffffffffffffffffffffffffffffffffffffffffffff19166020820180517bffffffffffffffffffffffffffffffffffffffffffffffffffffffff83818316178352505050506200010660201b60201c565b50565b60008151905060006a636f6e736f6c652e6c6f679050602083016000808483855afa5050505050565b60006200013c8262000194565b6200014881856200019f565b93506200015a818560208601620001b0565b6200016581620001e6565b840191505092915050565b600060208201905081810360008301526200018c81846200012f565b905092915050565b600081519050919050565b600082825260208201905092915050565b60005b83811015620001d0578082015181840152602081019050620001b3565b83811115620001e0576000848401525b50505050565b6000601f19601f8301169050919050565b610c5580620002076000396000f3fe608060405234801561001057600080fd5b50600436106100415760003560e01c806360ed12c9146100465780637dfdf51414610064578063ea1e83c114610080575b600080fd5b61004e61009e565b60405161005b9190610848565b60405180910390f35b61007e60048036038101906100799190610680565b6101ef565b005b61008861034a565b6040516100959190610901565b60405180910390f35b60606001805480602002602001604051908101604052809291908181526020016000905b828210156101e657838290600052602060002090600302016040518060600160405290816000820160009054906101000a900473ffffffffffffffffffffffffffffffffffffffff1673ffffffffffffffffffffffffffffffffffffffff1673ffffffffffffffffffffffffffffffffffffffff16815260200160018201805461014b90610adc565b80601f016020809104026020016040519081016040528092919081815260200182805461017790610adc565b80156101c45780601f10610199576101008083540402835291602001916101c4565b820191906000526020600020905b8154815290600101906020018083116101a757829003601f168201915b50505050508152602001600282015481525050815260200190600101906100c2565b50505050905090565b60016000808282546102019190610a08565b9250508190555061022b604051806060016040528060218152602001610bff602191393383610411565b600160405180606001604052803373ffffffffffffffffffffffffffffffffffffffff16815260200183815260200142815250908060018154018082558091505060019003906000526020600020906003020160009091909190915060008201518160000160006101000a81548173ffffffffffffffffffffffffffffffffffffffff021916908373ffffffffffffffffffffffffffffffffffffffff16021790555060208201518160010190805190602001906102ea929190610575565b506040820151816002015550503373ffffffffffffffffffffffffffffffffffffffff167fc180eab6945004a18cb2caefc3de23a73ec361d79f718160b4e27240ef2dfd47428360405161033f92919061091c565b60405180910390a250565b6000610370604051806060016040528060218152602001610bde602191396000546104b0565b600054905090565b61040e8160405160240161038c919061086a565b6040516020818303038152906040527f41304fac000000000000000000000000000000000000000000000000000000007bffffffffffffffffffffffffffffffffffffffffffffffffffffffff19166020820180517bffffffffffffffffffffffffffffffffffffffffffffffffffffffff838183161783525050505061054c565b50565b6104ab8383836040516024016104299392919061088c565b6040516020818303038152906040527fe0e9ad4f000000000000000000000000000000000000000000000000000000007bffffffffffffffffffffffffffffffffffffffffffffffffffffffff19166020820180517bffffffffffffffffffffffffffffffffffffffffffffffffffffffff838183161783525050505061054c565b505050565b61054882826040516024016104c69291906108d1565b6040516020818303038152906040527f9710a9d0000000000000000000000000000000000000000000000000000000007bffffffffffffffffffffffffffffffffffffffffffffffffffffffff19166020820180517bffffffffffffffffffffffffffffffffffffffffffffffffffffffff838183161783525050505061054c565b5050565b60008151905060006a636f6e736f6c652e6c6f679050602083016000808483855afa5050505050565b82805461058190610adc565b90600052602060002090601f0160209004810192826105a357600085556105ea565b82601f106105bc57805160ff19168380011785556105ea565b828001600101855582156105ea579182015b828111156105e95782518255916020019190600101906105ce565b5b5090506105f791906105fb565b5090565b5b808211156106145760008160009055506001016105fc565b5090565b600061062b61062684610971565b61094c565b90508281526020810184848401111561064357600080fd5b61064e848285610a9a565b509392505050565b600082601f83011261066757600080fd5b8135610677848260208601610618565b91505092915050565b60006020828403121561069257600080fd5b600082013567ffffffffffffffff8111156106ac57600080fd5b6106b884828501610656565b91505092915050565b60006106cd83836107da565b905092915050565b6106de81610a5e565b82525050565b6106ed81610a5e565b82525050565b60006106fe826109b2565b61070881856109d5565b93508360208202850161071a856109a2565b8060005b85811015610756578484038952815161073785826106c1565b9450610742836109c8565b925060208a0199505060018101905061071e565b50829750879550505050505092915050565b6000610773826109bd565b61077d81856109e6565b935061078d818560208601610aa9565b61079681610bcc565b840191505092915050565b60006107ac826109bd565b6107b681856109f7565b93506107c6818560208601610aa9565b6107cf81610bcc565b840191505092915050565b60006060830160008301516107f260008601826106d5565b506020830151848203602086015261080a8282610768565b915050604083015161081f604086018261082a565b508091505092915050565b61083381610a90565b82525050565b61084281610a90565b82525050565b6000602082019050818103600083015261086281846106f3565b905092915050565b6000602082019050818103600083015261088481846107a1565b905092915050565b600060608201905081810360008301526108a681866107a1565b90506108b560208301856106e4565b81810360408301526108c781846107a1565b9050949350505050565b600060408201905081810360008301526108eb81856107a1565b90506108fa6020830184610839565b9392505050565b60006020820190506109166000830184610839565b92915050565b60006040820190506109316000830185610839565b818103602083015261094381846107a1565b90509392505050565b6000610956610967565b90506109628282610b0e565b919050565b6000604051905090565b600067ffffffffffffffff82111561098c5761098b610b9d565b5b61099582610bcc565b9050602081019050919050565b6000819050602082019050919050565b600081519050919050565b600081519050919050565b6000602082019050919050565b600082825260208201905092915050565b600082825260208201905092915050565b600082825260208201905092915050565b6000610a1382610a90565b9150610a1e83610a90565b9250827fffffffffffffffffffffffffffffffffffffffffffffffffffffffffffffffff03821115610a5357610a52610b3f565b5b828201905092915050565b6000610a6982610a70565b9050919050565b600073ffffffffffffffffffffffffffffffffffffffff82169050919050565b6000819050919050565b82818337600083830152505050565b60005b83811015610ac7578082015181840152602081019050610aac565b83811115610ad6576000848401525b50505050565b60006002820490506001821680610af457607f821691505b60208210811415610b0857610b07610b6e565b5b50919050565b610b1782610bcc565b810181811067ffffffffffffffff82111715610b3657610b35610b9d565b5b80604052505050565b7f4e487b7100000000000000000000000000000000000000000000000000000000600052601160045260246000fd5b7f4e487b7100000000000000000000000000000000000000000000000000000000600052602260045260246000fd5b7f4e487b7100000000000000000000000000000000000000000000000000000000600052604160045260246000fd5b6000601f19601f830116905091905056fe5765206861766520256420746f74616c207265636f6d6d656e646174696f6e7321257320686173207265636f6d6d656e64656420796f7520736f6d657468696e6721a2646970667358221220a9d1a16d8661876f80f2140e31bdf00e8b82503b1fb0bdf2e38b339854ee22da64736f6c63430008040033",
  "linkReferences": {},
  "deployedLinkReferences": {}
}