{
  "_format": "hh-sol-artifact-1",
  "contractName": "RecoPortal",
  "sourceName": "contracts/RecoPortal.sol",
  "abi": [
    {
      "inputs": [],
      "stateMutability": "payable",
      "type": "constructor"
    },
    {
      "anonymous": false,
      "inputs": [
        {
          "indexed": true,
          "internalType": "address",
          "name": "from",
          "type": "address"
        },
        {
          "indexed": false,
          "internalType": "uint256",
          "name": "timestamp",
          "type": "uint256"
        },
        {
          "indexed": false,
          "internalType": "string",
          "name": "message",
          "type": "string"
        }
      ],
      "name": "NewReco",
      "type": "event"
    },
    {
      "inputs": [],
      "name": "getAllReco",
      "outputs": [
        {
          "components": [
            {
              "internalType": "address",
              "name": "recommender",
              "type": "address"
            },
            {
              "internalType": "string",
              "name": "message",
              "type": "string"
            },
            {
              "internalType": "uint256",
              "name": "timestamp",
              "type": "uint256"
            }
          ],
          "internalType": "struct RecoPortal.Reco[]",
          "name": "",
          "type": "tuple[]"
        }
      ],
      "stateMutability": "view",
      "type": "function"
    },
    {
      "inputs": [],
      "name": "getTotalReco",
      "outputs": [
        {
          "internalType": "uint256",
          "name": "",
          "type": "uint256"
        }
      ],
      "stateMutability": "view",
      "type": "function"
    },
    {
      "inputs": [
        {
          "internalType": "address",
          "name": "",
          "type": "address"
        }
      ],
      "name": "lastRecoAt",
      "outputs": [
        {
          "internalType": "uint256",
          "name": "",
          "type": "uint256"
        }
      ],
      "stateMutability": "view",
      "type": "function"
    },
    {
      "inputs": [
        {
          "internalType": "string",
          "name": "_message",
          "type": "string"
        }
      ],
      "name": "recommend",
      "outputs": [],
      "stateMutability": "nonpayable",
      "type": "function"
    }
  ],
  "bytecode": "0x60806040526200004f6040518060400160405280601f81526020017f4920616d206120636f6e747261637420616e64204920616d20736d6172742e008152506200007760201b6200064f1760201c565b606444426200005f9190620001c4565b6200006b919062000261565b60018190555062000308565b62000117816040516024016200008e919062000184565b6040516020818303038152906040527f41304fac000000000000000000000000000000000000000000000000000000007bffffffffffffffffffffffffffffffffffffffffffffffffffffffff19166020820180517bffffffffffffffffffffffffffffffffffffffffffffffffffffffff83818316178352505050506200011a60201b60201c565b50565b60008151905060006a636f6e736f6c652e6c6f679050602083016000808483855afa5050505050565b60006200015082620001a8565b6200015c8185620001b3565b93506200016e8185602086016200022b565b6200017981620002f7565b840191505092915050565b60006020820190508181036000830152620001a0818462000143565b905092915050565b600081519050919050565b600082825260208201905092915050565b6000620001d18262000221565b9150620001de8362000221565b9250827fffffffffffffffffffffffffffffffffffffffffffffffffffffffffffffffff0382111562000216576200021562000299565b5b828201905092915050565b6000819050919050565b60005b838110156200024b5780820151818401526020810190506200022e565b838111156200025b576000848401525b50505050565b60006200026e8262000221565b91506200027b8362000221565b9250826200028e576200028d620002c8565b5b828206905092915050565b7f4e487b7100000000000000000000000000000000000000000000000000000000600052601160045260246000fd5b7f4e487b7100000000000000000000000000000000000000000000000000000000600052601260045260246000fd5b6000601f19601f8301169050919050565b6112a980620003186000396000f3fe608060405234801561001057600080fd5b506004361061004c5760003560e01c806360ed12c9146100515780637dfdf5141461006f5780639479f1de1461008b578063ea1e83c1146100bb575b600080fd5b6100596100d9565b6040516100669190610c9a565b60405180910390f35b61008960048036038101906100849190610a31565b61022a565b005b6100a560048036038101906100a09190610a08565b610609565b6040516100b29190610de3565b60405180910390f35b6100c3610621565b6040516100d09190610de3565b60405180910390f35b60606002805480602002602001604051908101604052809291908181526020016000905b8282101561022157838290600052602060002090600302016040518060600160405290816000820160009054906101000a900473ffffffffffffffffffffffffffffffffffffffff1673ffffffffffffffffffffffffffffffffffffffff1673ffffffffffffffffffffffffffffffffffffffff16815260200160018201805461018690610fc9565b80601f01602080910402602001604051908101604052809291908181526020018280546101b290610fc9565b80156101ff5780601f106101d4576101008083540402835291602001916101ff565b820191906000526020600020905b8154815290600101906020018083116101e257829003601f168201915b50505050508152602001600282015481525050815260200190600101906100fd565b50505050905090565b42600f600360003373ffffffffffffffffffffffffffffffffffffffff1673ffffffffffffffffffffffffffffffffffffffff168152602001908152602001600020546102779190610ef5565b106102b7576040517f08c379a00000000000000000000000000000000000000000000000000000000081526004016102ae90610da3565b60405180910390fd5b42600360003373ffffffffffffffffffffffffffffffffffffffff1673ffffffffffffffffffffffffffffffffffffffff16815260200190815260200160002081905550600160008082825461030d9190610ef5565b925050819055506103376040518060600160405280602181526020016112536021913933836106e8565b600260405180606001604052803373ffffffffffffffffffffffffffffffffffffffff16815260200183815260200142815250908060018154018082558091505060019003906000526020600020906003020160009091909190915060008201518160000160006101000a81548173ffffffffffffffffffffffffffffffffffffffff021916908373ffffffffffffffffffffffffffffffffffffffff16021790555060208201518160010190805190602001906103f69291906108e8565b50604082015181600201555050606460015442446104149190610ef5565b61041e9190610ef5565b610428919061102c565b60018190555061046f6040518060400160405280601681526020017f52616e646f6d20232067656e6572617465643a20256400000000000000000000815250600154610787565b6032600154116105b6576104b86040518060400160405280600781526020017f257320776f6e210000000000000000000000000000000000000000000000000081525033610823565b600066017e9d8602b400905047811115610507576040517f08c379a00000000000000000000000000000000000000000000000000000000081526004016104fe90610d83565b60405180910390fd5b60003373ffffffffffffffffffffffffffffffffffffffff168260405161052d90610c85565b60006040518083038185875af1925050503d806000811461056a576040519150601f19603f3d011682016040523d82523d6000602084013e61056f565b606091505b50509050806105b3576040517f08c379a00000000000000000000000000000000000000000000000000000000081526004016105aa90610dc3565b60405180910390fd5b50505b3373ffffffffffffffffffffffffffffffffffffffff167fc180eab6945004a18cb2caefc3de23a73ec361d79f718160b4e27240ef2dfd4742836040516105fe929190610dfe565b60405180910390a250565b60036020528060005260406000206000915090505481565b600061064760405180606001604052806021815260200161123260219139600054610787565b600054905090565b6106e5816040516024016106639190610cbc565b6040516020818303038152906040527f41304fac000000000000000000000000000000000000000000000000000000007bffffffffffffffffffffffffffffffffffffffffffffffffffffffff19166020820180517bffffffffffffffffffffffffffffffffffffffffffffffffffffffff83818316178352505050506108bf565b50565b61078283838360405160240161070093929190610d0e565b6040516020818303038152906040527fe0e9ad4f000000000000000000000000000000000000000000000000000000007bffffffffffffffffffffffffffffffffffffffffffffffffffffffff19166020820180517bffffffffffffffffffffffffffffffffffffffffffffffffffffffff83818316178352505050506108bf565b505050565b61081f828260405160240161079d929190610d53565b6040516020818303038152906040527f9710a9d0000000000000000000000000000000000000000000000000000000007bffffffffffffffffffffffffffffffffffffffffffffffffffffffff19166020820180517bffffffffffffffffffffffffffffffffffffffffffffffffffffffff83818316178352505050506108bf565b5050565b6108bb8282604051602401610839929190610cde565b6040516020818303038152906040527f319af333000000000000000000000000000000000000000000000000000000007bffffffffffffffffffffffffffffffffffffffffffffffffffffffff19166020820180517bffffffffffffffffffffffffffffffffffffffffffffffffffffffff83818316178352505050506108bf565b5050565b60008151905060006a636f6e736f6c652e6c6f679050602083016000808483855afa5050505050565b8280546108f490610fc9565b90600052602060002090601f016020900481019282610916576000855561095d565b82601f1061092f57805160ff191683800117855561095d565b8280016001018555821561095d579182015b8281111561095c578251825591602001919060010190610941565b5b50905061096a919061096e565b5090565b5b8082111561098757600081600090555060010161096f565b5090565b600061099e61099984610e53565b610e2e565b9050828152602081018484840111156109b657600080fd5b6109c1848285610f87565b509392505050565b6000813590506109d88161121a565b92915050565b600082601f8301126109ef57600080fd5b81356109ff84826020860161098b565b91505092915050565b600060208284031215610a1a57600080fd5b6000610a28848285016109c9565b91505092915050565b600060208284031215610a4357600080fd5b600082013567ffffffffffffffff811115610a5d57600080fd5b610a69848285016109de565b91505092915050565b6000610a7e8383610c17565b905092915050565b610a8f81610f4b565b82525050565b610a9e81610f4b565b82525050565b6000610aaf82610e94565b610ab98185610eb7565b935083602082028501610acb85610e84565b8060005b85811015610b075784840389528151610ae88582610a72565b9450610af383610eaa565b925060208a01995050600181019050610acf565b50829750879550505050505092915050565b6000610b2482610e9f565b610b2e8185610ed3565b9350610b3e818560208601610f96565b610b4781611119565b840191505092915050565b6000610b5d82610e9f565b610b678185610ee4565b9350610b77818560208601610f96565b610b8081611119565b840191505092915050565b6000610b98603483610ee4565b9150610ba38261112a565b604082019050919050565b6000610bbb602a83610ee4565b9150610bc682611179565b604082019050919050565b6000610bde602b83610ee4565b9150610be9826111c8565b604082019050919050565b6000610c01600083610ec8565b9150610c0c82611217565b600082019050919050565b6000606083016000830151610c2f6000860182610a86565b5060208301518482036020860152610c478282610b19565b9150506040830151610c5c6040860182610c67565b508091505092915050565b610c7081610f7d565b82525050565b610c7f81610f7d565b82525050565b6000610c9082610bf4565b9150819050919050565b60006020820190508181036000830152610cb48184610aa4565b905092915050565b60006020820190508181036000830152610cd68184610b52565b905092915050565b60006040820190508181036000830152610cf88185610b52565b9050610d076020830184610a95565b9392505050565b60006060820190508181036000830152610d288186610b52565b9050610d376020830185610a95565b8181036040830152610d498184610b52565b9050949350505050565b60006040820190508181036000830152610d6d8185610b52565b9050610d7c6020830184610c76565b9392505050565b60006020820190508181036000830152610d9c81610b8b565b9050919050565b60006020820190508181036000830152610dbc81610bae565b9050919050565b60006020820190508181036000830152610ddc81610bd1565b9050919050565b6000602082019050610df86000830184610c76565b92915050565b6000604082019050610e136000830185610c76565b8181036020830152610e258184610b52565b90509392505050565b6000610e38610e49565b9050610e448282610ffb565b919050565b6000604051905090565b600067ffffffffffffffff821115610e6e57610e6d6110ea565b5b610e7782611119565b9050602081019050919050565b6000819050602082019050919050565b600081519050919050565b600081519050919050565b6000602082019050919050565b600082825260208201905092915050565b600081905092915050565b600082825260208201905092915050565b600082825260208201905092915050565b6000610f0082610f7d565b9150610f0b83610f7d565b9250827fffffffffffffffffffffffffffffffffffffffffffffffffffffffffffffffff03821115610f4057610f3f61105d565b5b828201905092915050565b6000610f5682610f5d565b9050919050565b600073ffffffffffffffffffffffffffffffffffffffff82169050919050565b6000819050919050565b82818337600083830152505050565b60005b83811015610fb4578082015181840152602081019050610f99565b83811115610fc3576000848401525b50505050565b60006002820490506001821680610fe157607f821691505b60208210811415610ff557610ff46110bb565b5b50919050565b61100482611119565b810181811067ffffffffffffffff82111715611023576110226110ea565b5b80604052505050565b600061103782610f7d565b915061104283610f7d565b9250826110525761105161108c565b5b828206905092915050565b7f4e487b7100000000000000000000000000000000000000000000000000000000600052601160045260246000fd5b7f4e487b7100000000000000000000000000000000000000000000000000000000600052601260045260246000fd5b7f4e487b7100000000000000000000000000000000000000000000000000000000600052602260045260246000fd5b7f4e487b7100000000000000000000000000000000000000000000000000000000600052604160045260246000fd5b6000601f19601f8301169050919050565b7f547279696e6720746f207769746864726177206d6f7265206d6f6e657920746860008201527f616e2074686520636f6e7472616374206861732e000000000000000000000000602082015250565b7f5761697420313573206265666f726520796f7520636f756c64207265636f6d6d60008201527f656e6420616761696e2e00000000000000000000000000000000000000000000602082015250565b7f4661696c656420746f207769746864726177206d6f6e65792066726f6d20746860008201527f6520636f6e74726163742e000000000000000000000000000000000000000000602082015250565b50565b61122381610f4b565b811461122e57600080fd5b5056fe5765206861766520256420746f74616c207265636f6d6d656e646174696f6e7321257320686173207265636f6d6d656e64656420796f7520736f6d657468696e6721a2646970667358221220b5013c5e111da33e2efdfa58238a574cc4ae6d3f317f27cb51ff5c9a943a28a864736f6c63430008040033",
  "linkReferences": {},
  "deployedLinkReferences": {}
}